:020000040C00EE
:10000000B82C0030E10F000C0F0A000C110A000C94
:10001000130A000C150A000C170A000C190A000C30
:100020000000000000000000000000000110000CB3
:100030001B0A000C000000000510000C0910000C49
:100040000D10000C1110000C1510000C1910000CF4
:100050001D10000C2110000C2510000C2910000CA4
:100060002D10000C3110000C3510000C3910000C54
:100070003D10000C4110000C4510000C4910000C04
:100080004D10000C5110000C5510000C5910000CB4
:100090005D10000C6110000C6510000C6910000C64
:1000A0006D10000C7110000C7510000C7910000C14
:1000B0007D10000C8110000C8510000C8910000CC4
:1000C0008D10000C9110000C9510000C9910000C74
:1000D000000000009D10000CA110000CA510000CE9
:1000E000A910000CAD10000CB110000CB510000CE4
:1000F000B910000CBD10000CC110000CC510000C94
:10010000C910000CCD10000CD110000CD510000C43
:10011000D910000CDD10000CE110000CE510000CF3
:10012000E910000CED10000CF110000CF510000CA3
:10013000F910000CFD10000C0111000C0511000C51
:100140000911000C0D11000C1111000C1511000CFF
:100150001911000C1D11000C2111000C2511000CAF
:100160002911000C2D11000C3111000C3511000C5F
:100170003911000C3D11000C4111000C4511000C0F
:100180004911000C4D11000C5111000C5511000CBF
:100190005911000C5D11000C6111000C6511000C6F
:1001A0006911000C6D11000C7111000C7511000C1F
:1001B0007911000C7D11000C8111000C8511000CCF
:1001C0008911000C8D11000C9111000C9511000C7F
:1001D0009911000C9D11000CA111000CA511000C2F
:1001E000A911000CAD11000CB111000CB511000CDF
:1001F000B911000CBD11000CC111000CC511000C8F
:10020000C911000CCD11000CD111000C0000000030
:1002100000000000D511000C00000000D911000CF6
:10022000DD11000CE111000CE511000CE911000CCE
:10023000ED11000CF111000CF511000CF911000C7E
:10024000FD11000C0112000C0512000C10B57D48C8
:100250000221816442687C49002442F44062426089
:100260000B68042262F39C630B60784900220A60E9
:100270004FF400334B608C60CA6000230B6101684F
:1002800041F47001016072480268724942F47002E0
:100290000260012008600022CA610B620A686E4891
:1002A00002400A608B620022CA62002008636B4829
:1002B00048638A63C8630B644864002088640A68E2
:1002C00022F480220A6008654FF04061644A1160A0
:1002D0006448C16801F06041B1F1604F18BFB1F1ED
:1002E000404F0ED10169CA0703D55F4901605F4BDA
:1002F0000360016941F002010161016941F00101FE
:10030000016110BD10B5534AD069594910F0180069
:1003100006D0082809D0102809D0182809D058E09C
:100320001068C0F3C100C14053E0524951E0524946
:100330004FE0936A906AC0F3052000EE900A906A3D
:1003400003F00303F8EE600AC0F30014906BC0F3EF
:10035000CC00444300EE104AB8EE400A012B04D012
:1003600027D3032B0FD00BD323E01068C0F3C100B9
:10037000C14001EE101AB8EE411AC1EE200A06E0A3
:100380009FED2C2A01E09FED2C2AC2EE200A506B33
:10039000DFED2A1AC0F3080001EE100AB8EE411A88
:1003A00000EE211AB7EE000A31EE000A20EE800AB4
:1003B00001E09FED230A506BC0F34620401C00EE85
:1003C000900AF8EE600A80EE200ABCEEC00A10EE39
:1003D000101A2A480160126A29A302F00F029A5CDF
:1003E000D140016010BD80B5FFF78CFF2348006845
:1003F000BDE80240F1EE101A21F09F0121F070419A
:10040000E1EE101A714672467346F4464EEC10EB5C
:100410004EEC11EB4EEC12EB4EEC13EB4EEC14EBFE
:100420004EEC15EB4EEC16EB4EEC17EB8EF3008812
:10043000744700000024744A20BCBE4B0000003901
:100440000000000088ED00E034EF00E080E300E011
:1004500088ED02E0000C0254E3EAE2EA80020101C6
:1004600008ED00E00C2002503B2A19087F6E5D4C1D
:100470000090D00300093D0040787D010C00003061
:100480000000000000000000010203040607080944
:10049000EFF30580002800D1704710B56B4908685C
:1004A00098B901220A6080F30B8880F30988002440
:1004B000674901EB0011401C08280C604C608C60FF
:1004C000CC60F5D3022080F31488BDE81040F1EE33
:1004D000100A20F09F0020F07040E1EE100A7046F4
:1004E000714672467346AEE02DE9F04104468846F7
:1004F0000026EFF30581EFF30B80A1B398BB544DB9
:100500000827002105F1040C0B01EA1810680028E7
:1005100004BF5CF80300002809D19068002804BFDC
:10052000D068002803D1082F08BF0F4602D0D0683A
:10053000404518D0491C0829E6D3082F13D204F1EE
:10054000080000F0ADF870B139016A180319936022
:10055000404B0351061D33512B1D58509068C2F873
:100560000C807E1C10603046BDE8F041F1EE101AA0
:1005700021F09F0121F07041E1EE101A4FE00000E0
:10058000EFF30582002A00D1704710B580B1092829
:100590000ED2401E2E4A02EB0014E3688B4207D1B4
:1005A000606800F0F7F8002121606160A160E160FF
:1005B0002AE00000002800D1704780B509280CD23D
:1005C000401EEFF30B82002A01BF214A02EB00100C
:1005D000C3688B4208BF00F007F9BDE8014015E091
:1005E000002800D1704710B509280CD2401EEFF347
:1005F0000B82174B03EB00104468944202BFC268A1
:100600008A4200F0FAF800BFBDE81040F1EE100A8F
:1006100020F09F0020F07040E1EE100A7046714615
:1006200072467346F4464EEC10EB4EEC11EB4EEC7A
:1006300012EB4EEC13EB4EEC14EB4EEC15EB4EECD8
:1006400016EB4EEC17EB8EF300887447B0280030A1
:1006500028280030A5EDF5FE624930B50A4600E0D5
:100660001A4613688342FBD35368D418844203D1DB
:100670004068C3185360104643681468C518A54203
:1006800008D189688C4204D06168CB184360246823
:1006900000E00C460460824218BF106030BD0000CC
:1006A000504A70B59168002409BB02F1180302F1A9
:1006B00018064FF420511D4616F0070F05D0DD1D1A
:1006C000ED08ED00C5F52056991949190839C908F2
:1006D000C9001560546091604C600C604E1B6E60E8
:1006E000296069681161D1604FF000415161516921
:1006F00008424DD100284BD0083010F0070F04D02D
:1007000000F1080300F00701581A002840D0D16812
:1007100081423DD3156801E02A460D466968814251
:1007200002D229680029F7D12E4EB1688D422FD010
:100730001368296803F1080411606B681B1A112BF8
:100740000FD32A1812F0070105D0012080F310887A
:1007500080F39088FEE7291D0B5068601046FFF774
:100760007BFF6868F1683369091AF160994288BFB4
:100770001946316171690022084368602A6014F0EB
:10078000070005D0012080F3108880F39088FEE7F1
:10079000204670BD002800D1704710B50838114AB6
:1007A00043685469234205D1012080F3108880F307
:1007B0009088FEE7016829B1012080F3108880F35A
:1007C0009088FEE7A3434360012181F39088D368BA
:1007D0004168CB18D360FFF73FFF002080F390887B
:1007E00010BD000010000030EFF3058121B106C8F4
:1007F00082F30B8881F309887047EFF3058139B1E3
:10080000EFF309810160002181F30B8881F30988EE
:1008100070470EE002684368024408305FEAC37C18
:1008200044BF4B445B1E52F804CB43F804CB091F72
:10083000F9D150F8041B0029ECD1704700B5C3B0C2
:100840005548016841F40021016000F0B5F84FF40B
:1008500086710022684600F0D1F8002000900190D7
:1008600003900590079009900B900D900F901190B8
:10087000139015904FF0FF3022A90022229048607B
:100880008860C860086148618861C8610862486220
:100890008862C862086348638863C8630864486400
:1008A0008864C86402920492069208920A920C929A
:1008B0000E9210921292149242926946374800F0BA
:1008C000ADF808B172B6FEE73548026842F0200282
:1008D0000260016801F020010091009A036843F072
:1008E00002030360016801F002010091009A0368AD
:1008F00043F008030360016801F0080100910099CA
:100900000268102142F0400202600068002200F0FC
:10091000400000900098234800F0F6F800220121E2
:10092000214800F0F1F800224FF440711F4800F018
:10093000EBF8002210211E4800F0E6F800F0F8F86D
:100940004FF001601B490860026882F388884068A4
:100950002DE9F00FA2B020F001002DEC000A0146B5
:10096000024603460446054606460746804681463B
:1009700082468346844680F300888447EFF31485DB
:1009800015F0080F18BFB0EE400A3DEC000A22B087
:10099000BDE8F00FFEE7000024ED00E000000530A8
:1009A0008C0C02540014025200040252000C025239
:1009B0000018025208ED02E080B5032000F0C0F8F4
:1009C00000F04AF90A4A13680A490B4A03F00F0378
:1009D000C95CC8401060042000F0F8F8002000F066
:1009E000D7F908B1012002BD00F016FA002002BDBF
:1009F000200C02548004000C0C0000304018491CEC
:100A00001CBFB1F1010100F8012DF9D17047FEE7DB
:100A1000FEE7FEE7FEE7FEE7FEE77047F0B5DFF82A
:100A2000CC30DFF8CC40B0F1005F18BFB0F1405FD0
:100A30000BD0A04218BF984207D0DFF8B8209042F0
:100A40001CBFDFF8B450A8420BD10A68002A18BFB7
:100A5000B2F1004F05D14A68002A18BFB2F1804FA9
:100A600001D00120F0BDB0F1005F18BFB0F1405FD0
:100A700003D1DFF88820102309E0A04218BF984274
:100A800007BFDFF87C200423DFF878201423002040
:100A900008E001EB8006D6F8884002EB8005401C98
:100AA000C5F800429842F4D348680C68044300201B
:100AB00007E001EB8007BD6802EB8006401CC6F82A
:100AC00000519842F5D31069012505FA03F35B1E26
:100AD00020EA0303D1F808010343136111680020E1
:100AE00021F040410C431460F0BD000000000430D0
:100AF000000004200000052000000530002C0350F9
:100B0000003003500034035070B50024056B09E039
:100B10000126A640314204D025EA060302FA04F574
:100B20001D43641C31FA04F3F2D1056370BD00006B
:100B30000248016821F002010160704710E000E006
:100B400040490A6860F30A2240F2FA5060F31F42FB
:100B50000A60704770B53B4B1C68C4F30223012444
:100B6000C3F10705052D2EBF0F2504FA05F56D1EEF
:100B70001E1D072E34BF0023DB1E2940994004FAB6
:100B800003F35B1E1A4011430901020002D42E48F0
:100B9000815470BD2D4B02F00F021A4402F8041C60
:100BA00070BD0000401EB0F1807F07D22849486028
:100BB00000228A600B6843F003030B60B0F1807F72
:100BC0008041C043C00F7047000000002149204A07
:100BD000042820D8DFE800F00810161F0300116871
:100BE00041F0040111607047106820F004001060AB
:100BF0000A6822F00C020DE0106820F0040010607A
:100C0000012004E01368022023F0040313600A6843
:100C100060F383020A6070470D4801684A0701D5F6
:100C2000042070470B48006800F00C00042802D034
:100C3000082802D003E001207047022070470020FE
:100C4000704700000CED00E000E400E018ED00E06B
:100C500010E000E0E40C025430B5454BD86900F0D8
:100C60001800082801D1484830BDD969454811F01D
:100C7000180F07D119688A0672D51A68C2F3C10124
:100C8000C84030BDD96901F01801102901D13F4891
:100C900030BDD96901F01801182961D19C6A996A9F
:100CA0009A6AC2F300159A6BC1F30521C2F3CC0214
:100CB000554300EE105AB8EE400A00294FD000EE1E
:100CC000901A04F00304F8EE600A012C02D0032C01
:100CD00022D024E019689FED271A20EE010A8A0627
:100CE0000AD51968C1F3C101C84001EE100AB8EE77
:100CF000411AC1EE200A03E09FED1F2AC2EE200A2E
:100D0000586BF7EE001A00F02CF831EE000A70EE86
:100D1000211A20EEA10A13E09FED182A01E09FEDB1
:100D2000182A586BDFED131AC2EE200A00F019F8EA
:100D300000EE211AB7EE000A31EE000A20EE800A1A
:100D4000586BC0F34620401C00EE900AF8EE600A93
:100D500080EE200ABCEEC00A10EE100A30BD002062
:100D600030BDC0F3080001EE100AB8EE411A70471A
:100D7000000C0254000000390024744C20BCBE4B0F
:100D80000024744A0090D00300093D0040787D01A2
:100D9000F8B504461D4E3078002500282BD01C499C
:100DA0000A681C4F530707D54FF47A71B1FBF0F076
:100DB0003A68B2FBF0F51AE0FFF72EFF18B10228EF
:100DC0000CD005D313E031784FF4FA503A680AE0BA
:100DD00031784FF47A704FF4FA4204E031784FF4EE
:100DE0007A704FF40042B0FBF1F1B2FBF1F5284606
:100DF000FFF7D8FE08B10120F2BD002221464FF0D6
:100E0000FF30FFF7A7FEB4600020F2BD0000003005
:100E100010E000E00C00003081B00648016841F0AD
:100E200080710160006800F080700090009801B04F
:100E3000704700BF880C0254EFF3058048B1154994
:100E40000A684BF6FF70024042F0B86242F4691241
:100E50000A6011E0EFF3058068B10F48016841F4C2
:100E6000406101600D48026822F000520260016892
:100E700041F08061016000BFF1EE100A20F09F0098
:100E800020F07040E1EE100A7046714672468EF313
:100E9000008874470CED00E08CED00E034EF00E0DA
:100EA00030B4002512E050F8042BD30744BF4A4465
:100EB000521E091F042942F8045BFAD213468C071C
:100EC00044BF15809B1CC90748BF1D7050F8041B08
:100ED0000029E8D130BC7047C0B231B10A4A18B11C
:100EE000012808BF516000E01160F1EE100A20F007
:100EF0009F0020F07040E1EE100A70467146724685
:100F00008EF30088744700BFA828003010B5074949
:100F100079441831064C7C44163404E00A68081DF4
:100F2000114488470146A142F8D110BD2C000000B1
:100F30004C0000004EF68851CEF20001086840F4E3
:100F400070000860BFF34F8FBFF36F8F4FF00170D9
:100F5000E1EE100A7047000049FFFFFFA4280000DF
:100F60001000003000000000ABF8FFFF1000000090
:100F700080000000000000300000000000F00DF8CC
:100F8000002801D0FFF7C2FFAFF300800020AFF3CD
:100F90000080FFF753FC00F002F80120704700F0DA
:100FA00001B800000746384600F002F8FBE70000F1
:100FB00080B5AFF30080024A11001820ABBEFBE7FA
:100FC000260002000548014603B4684680F30988FC
:100FD000AFF30080FFF7AEFFFFF7D0FFA5EDF5FE02
:100FE00001488047014800474D02000CC50F000C26
:100FF0000100000000000000100000000090D0037D
:10100000FFF7FEBFFFF7FEBFFFF7FEBFFFF7FEBF14
:10101000FFF7FEBFFFF7FEBFFFF7FEBFFFF7FEBF04
:10102000FFF7FEBFFFF7FEBFFFF7FEBFFFF7FEBFF4
:10103000FFF7FEBFFFF7FEBFFFF7FEBFFFF7FEBFE4
:020000040C0FDF
:10E000007FE97FE902F768BF7FE97FE902F7EBB9B3
:10E010007FE97FE902F768BA7FE97FE902F7B0BAE2
:10E020007FE97FE902F734BA7FE97FE902F7C2BAF4
:10E030007FE97FE902F7D4BA7FE97FE902F7FCBE06
:10E040007FE97FE902F706BF000000000000000042
:10E0500000000000000000000000000000000000C0
:040000050C000FC517
:00000001FF
